:020000040800F2
:10000000D82D002099010008BF0F0008030F000839
:10001000BD0F000825020008811200080000000042
:1000200000000000000000000000000001010008C6
:10003000270200080000000045010008E90F000841
:10004000B3010008B3010008B3010008B3010008C0
:10005000B3010008B3010008B3010008B3010008B0
:10006000B3010008B3010008B3010008B3010008A0
:10007000B3010008B3010008B3010008B301000890
:10008000B3010008B3010008B3010008B301000880
:10009000B3010008B3010008B3010008B301000870
:1000A000B3010008B3010008B3010008B301000860
:1000B000B3010008B3010008B3010008B301000850
:1000C000B3010008B3010008B3010008B301000840
:1000D000B3010008B3010008B3010008B301000830
:1000E000B3010008B3010008B3010008DFF80CD029
:1000F00000F086F800480047BD130008D82D002006
:10010000224B19680868B0E8F00F80F30988BFF344
:100110006F8F4FF0000080F311884EF00D0E704786
:100120000000000006480068006880F3088862B696
:1001300061B6BFF34F8FBFF36F8F00DF00BF00BF0B
:1001400008ED00E0EFF30980BFF36F8F0F4B1A68E3
:1001500020E9F00F106008B54FF0500080F31188CF
:10016000BFF34F8FBFF36F8F01F0E4FC4FF000003F
:1001700080F31188BDE8084019680868B0E8F00FFE
:1001800080F30988BFF36F8F704700BF40000020E5
:10019000EFF3058070470000064880470648004797
:1001A000FEE7FEE7FEE7FEE7FEE7FEE7FEE7FEE727
:1001B000FEE7FEE765100008ED000008202A04DBDA
:1001C000203A21FA02F00021704721FA02F3D040D0
:1001D000C2F12002914008431946704740EA0103EA
:1001E0009B0703D009E008C9121F08C0042AFAD2ED
:1001F00003E011F8013B00F8013B521EF9D27047B1
:10020000064C074D06E0E06840F0010394E8070063
:1002100098471034AC42F6D3FFF76CFFB01E0008CD
:10022000D01E0008FEE7704706490020C861064856
:10023000016941F004010161016941F0400101617E
:1002400070470000C800002000200240064A00213C
:10025000D16106490A6942F002020A6148610869EF
:1002600040F0400008617047C800002000200240B4
:10027000044B0022DA61044A136943F0010313615D
:1002800001807047C800002000200240144800226E
:10029000C168CB06134904D5CA6942F00202CA619B
:1002A0001022C3685B0705D5CB6943F00103CB611E
:1002B00042F00402C369DB0707D0CB6943F00403B3
:1002C000CB61C16921F00101C161A2F580710139E1
:1002D00001D0C2607047C16921F00101C16170475E
:1002E00000200240C800002070B5054600F0BCF9AF
:1002F0000646114C09E0681C07D025B100F0B4F99E
:10030000801BA84201D9032070BDE068C007F2D16C
:10031000E068800601D52020E060E068C00605D4D2
:10032000E069C00702D1E068400703D5FFF7AEFFE0
:10033000012070BD002070BD002002402DE9F04773
:10034000054626480F460126017E01290FD00121CE
:10035000814601762868DFF888804CF25034022804
:1003600008D0A2462046FFF7BFFFA8B131E0022027
:10037000BDE8F0872046FFF7B7FF08BB0120FFF775
:1003800053FF2046FFF7B0FFD8F81010064621F0C3
:100390000401C8F810101CE04FF0FF303860AC6862
:1003A00011E02046FFF752FF5046FFF79DFFD8F8B7
:1003B0001010060021F00201C8F8101001D03C60B6
:1003C00007E004F58064D5E9020100EB8120A0423A
:1003D000E7D8002189F818103046C9E7C800002086
:1003E000002002400348016941F0800101610020C2
:1003F00070470000002002402DE9F05F07461C48CE
:1004000088460024017E15461E46012909D0012197
:10041000814601764CF2503A5046FFF765FF18B11D
:1004200022E00220BDE8F09F012F02D0022F00D071
:100430000427D346DFF83CA0220128463146FFF7C7
:10044000BDFE81B208EB4400FFF712FF5846FFF7EC
:100450004BFFDAF8102022F00102CAF8102018B978
:10046000641CE4B2BC42E7D3002289F81820D9E723
:10047000C800002000200240064900200A69120638
:1004800007D5054A4A60054A4A600969090600D548
:10049000012070470020024023016745AB89EFCD62
:1004A0002DE9F84FDFF890A100220AF1040B144661
:1004B00001274FF00F090BF1040E00BF0B6807FA7C
:1004C00004F52B40AB4274D1DFF870C14E68A6EB47
:1004D0000C0866452BD00DDC032E34D005DC36B37A
:1004E000012E19D0022E2FD11BE0112E16D0122E64
:1004F0002AD119E0B8F5881F19D006DCB8F5803F7D
:1005000015D0B8F5801F1FD111E0B8F5001F0ED02F
:10051000B8F5041F18D10AE0CA6815E0CA68121DB0
:1005200012E0CA6808320FE0CA680C320CE08A6830
:100530002AB1012A4FF0080203D0456104E00422E9
:1005400002E0056100E00022FF2B01D8064601E031
:1005500000F104064FEA840501D9A5F12005D6F87B
:1005600000C009FA05F82CEA080C02FA05F54CEA75
:10057000050CC6F800C04D68ED0057D5304DAE698A
:1005800046F00106AE61AD6924F0030605F00105F1
:1005900000952C4D06EB050CDCF80850A6074FEA39
:1005A000167809FA08F6B543274EB04202D1002664
:1005B00010E03BE0254EB04201D101260AE0244E76
:1005C000B04201D1022605E0224EB04201D10326FD
:1005D00000E0042606FA08F62E43CCF808604D68C1
:1005E000DAF80060ED03554601D51E4300E09E4356
:1005F0002E604D68DBF80060AD035D4601D51E43FB
:1006000000E09E432E604D68DEF80060ED02754606
:1006100001D51E4300E09E432E604D68AD020E4D95
:100620002E6801D51E4300E09E432E60641C102CF2
:10063000FFF444AFBDE8F88F000401400000111042
:10064000001002400000014000080140000C014081
:1006500000100140001401400C0401400AB1016186
:1006600070470904FBE700000148806870470000FC
:100670000C00002070B5040011D021684CF6CC406D
:100680000860216845F255500860D4E900014160D6
:100690002168A0688860FFF7E7FF054609E00120B0
:1006A00070BD00BFFFF7E0FF401B302801D90320D9
:1006B00070BD2068C0680028F4D121684AF6AA20DD
:1006C0000860002070BD00684AF6AA210160002081
:1006D00070470000024881680278114481607047C9
:1006E0000C000020074810B5016841F010010160BE
:1006F000032000F091F80F2000F006F800F024F835
:10070000002010BD0020024070B50D4D04464FF48E
:100710007A712878B1FBF0F00A490968B1FBF0F072
:1007200000F020FB48B9102C07D200222146501EB1
:1007300000F052F800206C6070BD012070BD000018
:100740000C00002018000020214808B5816941F004
:1007500001018161816901F001010091C16941F0EC
:100760008051C161C06900F080500090032000F00A
:1007700053F8002211466FF00B0000F02DF8002214
:1007800011466FF00A0000F027F8002211466FF0C2
:10079000090000F021F800221146501F00F01CF85B
:1007A00000221146101F00F017F800220F21901EA2
:1007B00000F012F800220F21501E00F00DF805483D
:1007C000416821F0E06141F00071416008BD000026
:1007D0000010024000000140F0B40E4B1B680C46B4
:1007E000C3F30223C3F10705042D00D90425191D05
:1007F000072901D2002300E0DB1E012606FA05F1DD
:10080000491E214099409E40761E16403143F0BC5F
:1008100000F0D6BB0CED00E0064900F007020868C6
:100820004FF6FF03184040EA0220034A10430860D5
:10083000704700000CED00E00000FA052DE9F047DC
:10084000DFF83C8105460E46D8F8000000F00700AE
:10085000B0420CD2D8F8001021F007013143C8F89B
:100860000010D8F8000000F00700B04263D12878EB
:10087000444C800705D56068A96820F0F000084363
:1008800060602878C00745D06868012816D02168C4
:10089000022816D0890700294DDA616821F003018A
:1008A00001436160FFF7E0FE6968074641F2883066
:1008B00001290FD00229814619D027E02168890338
:1008C000E9E78901E7E700BFFFF7CEFEC11B494515
:1008D00001D918E081466068C0F381000128F3D196
:1008E00018E000BFFFF7C0FEC11B49450BD8606888
:1008F000C0F381000228F5D10CE000BFFFF7B4FE81
:10090000C11B494502D90320BDE8F087606810F09B
:100910000C0FF3D1D8F80010404601F00701B142A6
:100920000BD9016821F0070131430160006800F034
:100930000700B04201D00120E6E72878400705D53E
:100940006068E96820F4E060084360602878000788
:1009500006D56068296920F4605040EAC1006060F3
:1009600000F03CF86168084AC1F30311515CC840CB
:10097000064908600F20FFF7C7FE0020C4E700000B
:1009800000200240001002406C1E000818000020E9
:10099000014800687047000018000020044805491D
:1009A00000684968044AC1F30221515CC84070479D
:1009B00018000020001002407C1E00080448054971
:1009C00000684968044AC1F3C221515CC8407047BD
:1009D00018000020001002407C1E000812A185B003
:1009E0000FC98DE80F0014A0144A006804905168E4
:1009F000134801F00C03042B10D0082B0ED1C1F3C7
:100A00008343C9031DF803000AD5516804AAC1F342
:100A10004041515C0A4A5043B0FBF1F005B07047C9
:100A200008494843FAE700000203040506070809DD
:100A30000A0B0C0D0E0F10100102000000100240F6
:100A400000127A0000093D002DE9F84F04460078B5
:100A5000B94DC00748D06868C0F38100012807D0AD
:100A60006868C0F38100022809D16868C00306D510
:100A70002868800338D5606800286FD034E060684B
:100A8000B0F5803F0BD010B1B0F5A02F11D0286881
:100A900020F480302860286820F4802002E0286854
:100AA00040F480302860606888B1FFF7DDFD0646BD
:100AB00009E0286840F480202860F0E7FFF7D4FDC3
:100AC000801B642875D828688003F7D50CE0FFF7F1
:100AD000CBFD064605E000BFFFF7C6FD801B64287E
:100AE000F0D828688003F7D42078944E80074FF020
:100AF00001094FF000083BD5686810F00C0F07D0D3
:100B00006868C0F38100022809D16868C00306D470
:100B10002868800714D5206901281FD110E02069BA
:100B2000B0B1C6F80090FFF79FFD074605E000BF93
:100B3000FFF79AFDC01B0228C4D828688007F7D5A4
:100B40002868616920F0F80040EAC10028600FE0E1
:100B5000C6F80080FFF788FD074606E0E9E000BF21
:100B6000FFF782FDC01B022823D828688007F7D42E
:100B7000207800072CD57248A169D9B1C0F800903F
:100B8000FFF772FD074604E0FFF76EFDC01B022869
:100B90000FD8686A8007F7D56A484FF4FA510068A1
:100BA000B0FBF1F0009000BF0098411E0091FAD216
:100BB0000EE080E0C0F80080FFF756FD074604E035
:100BC000FFF752FDC01B022875D8686A8007F7D46A
:100BD0002078400760D5E8690027C00008D4E8699C
:100BE00040F08050E861E869012700F080500090F3
:100BF00055480168C90513D40168834641F48071E2
:100C00000160FFF731FD824606E000BFFFF72CFDD3
:100C1000A0EB0A0064284ED8DBF80000C005F5D52B
:100C2000E06801280AD008B1052813D0286A20F00E
:100C300001002862286A20F0040002E0286A40F0DF
:100C400001002862E06841F2883B98B1FFF70CFD93
:100C500082460BE0286A40F004002862EEE700BFFD
:100C6000FFF702FDA0EB0A0159455AD8286A800710
:100C7000F6D50CE0FFF7F8FC824605E0FFF7F4FC40
:100C8000A0EB0A0159454CD8286A8007F6D41FB159
:100C9000E86920F08050E861E06988B36968C1F3D1
:100CA0008101022945D00228C6F8608004D0FFF7F0
:100CB000DBFC044638E034E0FFF7D6FC074604E0EE
:100CC000FFF7D2FCC01B02282BD828688001F7D47C
:100CD000206AB0F5803F05D16868A16820F4003033
:100CE00008436860D4E908010843696821F4741175
:100CF00008436860C6F86090FFF7B6FC044606E05B
:100D000015E000BFFFF7B0FC001B022809D82868D7
:100D10008001F7D50BE000BFFFF7A6FC001B0228FF
:100D200002D90320BDE8F88F28688001F4D40020A0
:100D3000F8E70120F6E70000001002400000424200
:100D40008004424218000020007000404FF0E02173
:100D50000428086903D020F004000861704740F0BF
:100D60000400FAE710B5401EB0F1807F01D30120E6
:100D700010BD4FF0E02460610F21601700F020F9F2
:100D80000020A06107202061002010BD70B5040084
:100D900004D094F83900002510B106E0012070BDA0
:100DA00084F83850204600F023F8242084F83900D5
:100DB0002068C16821F40051C160204600F076F936
:100DC0002068016921F4904101612068416921F0A6
:100DD0002A0141612068C16841F40051C160E563A6
:100DE000202084F8390084F83A00002070BD00000B
:100DF00010B50068114986B088421DD1104881693C
:100E000041F48041816180690E4C00F4804004907F
:100E10004FF4007000900220019003200390694677
:100E20002046FFF73DFB00212015CDE9000102918E
:100E300069462046FFF734FB06B010BD003801407C
:100E400000100240000801402DE9F843044690F8E4
:100E500039001F4616460D46202850D1A5B19EB137
:100E600094F8380001284AD0012084F838004FF067
:100E70000008C4F83C80212084F83900FFF7F4FB17
:100E8000A6848146E68426E00120BDE8F883E08C54
:100E9000401EE084A0684B46B0F5805F4FF0000232
:100EA0004FF080012046009703D000F0B7F9E8B971
:100EB0000DE000F0B3F9C8B928882168C0F3080034
:100EC0004860206908B16D1C05E0AD1C03E0216895
:100ED00015F8010B4860E08C0028D8D14B46002261
:100EE00040212046009700F099F908B10320CCE793
:100EF000202084F8390084F838800020C5E70220DB
:100F0000C3E7FEE74FF4FA74204600F0B1FA024856
:100F1000FFF7D9FBF8E700007C00002000F0B2F9F1
:100F2000094C4FF4FA75284600F0A2FA012202217A
:100F30002046FFF793FB284600F09AFA0022022190
:100F40002046FFF78BFBEEE7000C0140194810B577
:100F5000816986B041F020018161816901F0200141
:100F60000491816941F008018161816901F0080102
:100F70000491816941F00401816180690E4C00F0A7
:100F800004000490002201212046FFF767FB0122A4
:100F900002212046FFF762FB03200121CDE9000179
:100FA0000020CDE9020169462046FFF779FA06B034
:100FB00010BD000000100240000C0140FEE7704729
:100FC0000907090E002806DA00F00F0000F1E02002
:100FD00080F8141D704700F1E02080F8001470477D
:100FE000012000F045FAFBE710B5FFF773FBBDE801
:100FF000104000F049BA30B58FB0092001210090AF
:101000004FF48030002404910691CDE901040225BB
:10101000CDE907504FF4E01009906846FFF714FD42
:1010200000B1FEE70F20CDE90A054FF48060CDE95D
:101030000C4002210AA80E94FFF700FC00B1FEE765
:10104000FFF7A6FC4FF47A71B0FBF1F0FFF78AFED0
:101050000420FFF77BFE00220F21501EFFF7BCFB90
:101060000FB030BD0D48016841F0010101604168D9
:101070000B4A1140416001680A4A11400160016851
:1010800021F480210160416821F4FE0141604FF4A8
:101090001F0181600449C0030860704700100240CE
:1010A0000000FFF8FFFFF6FE08ED00E02DE9F0413B
:1010B000044600680169E26821F44051114301616E
:1010C0002169A0680843616908432168CA6841F240
:1010D0000C639A430243CA6020684169A26921F403
:1010E0004071114341614C49206864253226884291
:1010F0003CD1FFF763FC00EBC00101EB001061681D
:101100008900B0FBF1F7FFF759FC00EBC00101EBE0
:1011100000106168B0468900B0FBF1F0B0FBF5F05B
:101120006FF01801484307EB800106EB0110B0FB9C
:10113000F5F000F0F006FFF741FC00EBC00101EB19
:10114000001061688900B0FBF1F0B0FBF5F006EB30
:101150000016FFF733FC00EBC00101EB00106168E3
:101160008900B0FBF1F7FFF729FC3BE0FFF716FC25
:1011700000EBC00101EB001061688900B0FBF1F7E2
:10118000FFF70CFC00EBC00101EB00106168B046FA
:101190008900B0FBF1F0B0FBF5F06FF018014843A7
:1011A00007EB800106EB0110B0FBF5F000F0F00654
:1011B000FFF7F4FB00EBC00101EB00106168890050
:1011C000B0FBF1F0B0FBF5F006EB0016FFF7E6FB25
:1011D00000EBC00101EB001061688900B0FBF1F782
:1011E000FFF7DCFB00EBC00101EB00106168890038
:1011F000B0FBF1F0B0FBF5F06FF01801484307EBDE
:10120000800108EB0110B0FBF5F0216800F00F0041
:1012100030448860BDE8F081003801402DE9F0419C
:10122000984617460E460446069D1DE0681C1BD0D6
:101230002DB1FFF719FAA0EB0800A84214D92068D5
:10124000C16821F4D071C1602068416921F00101B9
:101250004161202084F8390084F83A00002084F8A5
:1012600038000320BDE8F0812068006836EA0000FD
:1012700004D00020B842D9D00020F3E70120F9E7DC
:10128000FEE700002DE9F04389B04FF000084FF46D
:101290007A754446CDF81C80CDF818802B460F2275
:1012A00024A12848CDF81480FFF7CEFDFFF7E4F81D
:1012B0000194254C0120CDE9034007A901A8FFF7BF
:1012C0003DF828B12B46102220A11E48FFF7BCFD97
:1012D000A946234D234E27462A460023394602209D
:1012E000FFF78AF808B34B4612221FA11548FFF7F3
:1012F000ABFDB742F0D3FFF775F8CDF81480206846
:101300000690A84202D00598401C0590241DB442C6
:10131000F5D305984B464FF00F0240B117A109488D
:10132000FFF792FD09B0BDE8F0833F1DE1E717A18B
:10133000F5E7000053797374656D2052756E2E2E9B
:101340002E0D0A008800002000FC00086572617301
:1013500065206572726F722E2E2E0D0A000000003D
:10136000785634120000010870726F6772616D2048
:101370006572726F722E2E2E0D0A00006461746108
:10138000206572726F722E2E2E0D0A0070726F67BA
:1013900072616D204F4B2E2E2E0D0A0002E008C800
:1013A000121F08C1002AFAD170477047002001E0DF
:1013B00001C1121F002AFBD17047000090B0FFF757
:1013C00091F9FFF718FEFFF7C1FD2248204901609F
:1013D0000221416040F6FF718160FFF74BF900B1D7
:1013E000FEE71C481C490C300C2201604FF4E1312F
:1013F000416000218160C160C0E904128161C16166
:10140000FFF7C4FC00B1FEE7142214496846FEF75A
:10141000E5FE0021684600F041F8114C0F49142206
:101420002060143105A8FEF7D9FE002105A800F0C0
:1014300035F80A496060142228310AA8FEF7CEFE6A
:1014400000210AA800F02AF8A06000F018F8FEE7D2
:10145000003000407C00002000380140301E0008B1
:101460000000002001460020842900D0C81C7047DD
:1014700010B500B9012000F0FBFA002010BD10B536
:1014800000F01CFB002010BD10B500F0FDFB012892
:1014900003D0BDE8104000F0B5BB10BD3EB504461A
:1014A0000D46B0F90800FFF7DDFF02A9CDE9000104
:1014B000208A2B4682B2D4E9001000F0B9FB012843
:1014C00001D000203EBD02983EBD00002DE9F04154
:1014D000184C0F460546E6682068001D00F012FA19
:1014E00038B9206890F82C10012088402169814388
:1014F0002161681C07D137B12168BDE8F0410E4871
:10150000091D00F037BA20683544B54245602168AE
:1015100005D2A06BBDE8F041091D00F013BA606B65
:10152000091D00F00FFAA06A854200D2A562BDE84D
:10153000F081000040000020C42900202DE9F04186
:10154000054600F023FA2E4CA068401CA0602068DD
:101550002C4F10B1606940B32DE02560A0680128D0
:1015600029D1002606EB860007EB800000F0DCF9AD
:10157000761C072EF6D323488C3000F0D5F921488D
:10158000A03000F0D1F91F48B43000F0CDF91D486B
:10159000C83000F0C9F91B48DC3000F0C5F9194823
:1015A0008C3060631430A06305E02068E96AC06A8B
:1015B000884200D82560606A401C6062E96A0120A8
:1015C000226988401043206101EB810007EB800015
:1015D000291D00F0CFF900F0F9F9606900280CD05E
:1015E0002068E96AC06A884207D207494FF08050F4
:1015F0000860BFF34F8FBFF36F8FBDE8F08100002D
:1016000040000020E828002004ED00E070B5114EF5
:10161000114C17E000F086FA3068B8B100F0A6FB74
:1016200000F0B4F9F068C568281D00F06BF9A068F7
:10163000401EA0606068401E606000F0C7F9284648
:1016400000F00CF860680028E4D170BD00F08EFB5B
:10165000F8E70000B02900204000002010B5044643
:10166000006B00F0C7F92046BDE8104000F0C2B999
:1016700010484FF42051420706D0C01D0D4920F0FC
:101680000700411AC1F520510B4A00230144C2E969
:1016900000030839103A21F0070111604B600B601C
:1016A0000B1AC0E9001393604FF000405360D06004
:1016B00070470000E80000202C000020074C4FF08D
:1016C0008056074DFFF7A2FF20680128FAD92E6047
:1016D000BFF34F8FBFF36F8FF4E70000E8280020BF
:1016E00004ED00E02DE9F0479A46DDE909848146E2
:1016F0006FF00303206B03EB82021044089D20F07F
:101700000706700707D0502080F31188BFF34F8F72
:10171000BFF36F8FFEE723180A5C83F834200A5C5E
:1017200012B1401C1028F6D3002784F84370072D0F
:1017300000D30625E562C4E91157201D00F0FFF82B
:1017400004F1180000F0FBF82461C5F107006462A1
:10175000A061E76484F8507052464946304600F074
:10176000BFF82060B8F1000F01D0C8F80040BDE814
:10177000F087000030B5114900E011460A68824246
:10178000FBD34B685C18844203D14068184448601E
:10179000084643681C18944209D1084C103C246840
:1017A000A24209D052681A4442600A681268026074
:1017B000814200D0086030BD0460F9E72C000020B1
:1017C0000648416B096829B1416BC968C968496815
:1017D000816270474FF0FF31FAE7000040000020BF
:1017E00008484068401C4FF0500080F3118804D036
:1017F000BFF34F8FBFF36F8FFEE7BFF34F8FBFF382
:101800006F8FFEE7340000202DE9F04105460027E8
:1018100000F088F9314E306808B9FFF729FFF06809
:1018200005424BD1C5B3083568070ED005F0070057
:10183000C0F108000544680707D0502080F31188E4
:10184000BFF34F8FBFF36F8FFEE72DB370688542F4
:1018500034D82248103001460C6801E020460C467E
:101860006168A94202D221680029F7D131688C420F
:1018700024D007682168016060680837411B10297F
:101880000FD96019420708D0502080F31188BFF3A8
:101890004F8FBFF36F8FFEE710E041606560FFF789
:1018A00069FF61687068401A7060B268904200D247
:1018B000B060F06801430020C4E9000100F056FA6E
:1018C000780707D0502080F31188BFF34F8FBFF304
:1018D0006F8FFEE73846BDE8F08100001C00002055
:1018E00010B5031F4FF080741C601B1F21F0010115
:1018F0001960191F024B0B60143940380A6010BD83
:10190000E1170008D0E9013201699A60D0E90123AA
:101910005A604A68824201D182684A6000220261AC
:101920000868401E0860704700F108014FF0FF3260
:10193000C0E90112C160016100210160704700210E
:101940000161704730B50B685A1C02D000F10802E3
:1019500002E0026904E02246546825689D42FAD9F3
:1019600053684B6099608A60516008610168491C46
:10197000016030BD42684A6093688B60936859602B
:10198000916008610168491C01607047502080F334
:101990001188BFF34F8FBFF36F8F0A494868401C0F
:1019A000486001280CD10848006810F0FF0F07D0EC
:1019B000502080F31188BFF34F8FBFF36F8FFEE786
:1019C000704700003400002004ED00E0084948683A
:1019D00028B1401E486001D180F311887047502023
:1019E00080F31188BFF34F8FBFF36F8FFEE70000C6
:1019F0003400002070B5002827D0144DA0F1080451
:101A00006168E868014207D1502080F31188BFF374
:101A10004F8FBFF36F8FFEE722683AB1502080F3FB
:101A20001188BFF34F8FBFF36F8FFEE78143616073
:101A300000F078F860686968084468602046FFF73D
:101A400099FEBDE8704000F091B970BD1C00002007
:101A500006484FF47A710068B0FBF1F14FF0E020D6
:101A6000491E4161072101617047000018000020F4
:101A700010B5020014D00F48006B38B1502080F32D
:101A80001188BFF34F8FBFF36F8FFEE700F04AF866
:101A900000211046FFF71AFD00F068F9002807D171
:101AA00005494FF080500860BFF34F8FBFF36F8F31
:101AB00010BD00004000002004ED00E01CB51548FA
:101AC0000024CDE900402346802213A1144800F0F1
:101AD000AFF8012809D0401C1AD1502080F311889A
:101AE000BFF34F8FBFF36F8FFEE7502080F3118855
:101AF000BFF34F8FBFF36F8F06484FF0FF312C3885
:101B0000816201214161C460BDE81C4000F040B821
:101B10001CBD00006C00002049444C450000000042
:101B2000BD1600080248016B491C016370470000A4
:101B3000400000201448016B11B10121C1617047C0
:101B40000021C1610169B1FA81F1C1F11F0101EB0D
:101B500081020E4951F822306BB101EB820101F193
:101B600008034A6852684A609A4201D152684A6042
:101B7000D16801607047502080F31188BFF34F8F08
:101B8000BFF36F8FFEE7000040000020E828002030
:101B90001CB5194908780190FF20087008788DF865
:101BA00000009DF80000154A00F05000107007205A
:101BB000906005E09DF800305B008DF80030401E1D
:101BC0009DF800301B06F5D4000200F4E060906040
:101BD000019808700A48016841F4700101600168C9
:101BE00041F070410160FFF733FF00205060FEF7C5
:101BF00099FA00201CBD000000E400E03400002041
:101C000020ED00E010B5502080F31188BFF34F8F16
:101C1000BFF36F8F00F046F818B104494FF08050C1
:101C20000860002080F3118810BD000004ED00E082
:101C30002DE9FF5F8346DDE90E87994616468A4601
:101C40009000FFF7E1FD05001AD05420FFF7DCFDFE
:101C5000040012D025630021CDE90241CDE90087BF
:101C60004B46324651465846FFF73CFD2046FFF7AB
:101C700065FC012004B0BDE8F09F2846FFF7BAFEDE
:101C80004FF0FF30F6E700000548416919B1006BDD
:101C900018B10020704701207047022070470000F3
:101CA000400000202DE9F0412E4C0027206B40B170
:101CB000A069401CA061E06900B101273846BDE879
:101CC000F081E668761CE66013D1606B006838B17D
:101CD000502080F31188BFF34F8FBFF36F8FFEE763
:101CE000606BA16B6163A063206A401C2062FFF7F8
:101CF00067FDA06ADFF87080864209D3606B0068D8
:101D000080B1606BC068C568686886420DD2A06209
:101D10002068C06A00EB800158F821000128CAD968
:101D20000127C8E74FF0FF30F1E7281DFFF7EAFD74
:101D3000A86A18B105F11800FFF7E4FDE86A01216F
:101D4000226981401143216100EB800108EB810091
:101D5000291DFFF70FFEE86A2168C96A8842CDD3C2
:101D60000127CBE740000020E82800202DE9F047BC
:101D70002C4D00242746286B38B1FFF707FE286B4F
:101D8000401E2863286B40B146E0502080F3118844
:101D9000BFF34F8FBFF36F8FFEE7A968224E01207C
:101DA000D1B3A6F1B40980463068E8B1F068C468E0
:101DB00004F11800FFF7A6FD201DFFF7A3FDE06A60
:101DC0002A6908FA00F11143296100EB800109EB4F
:101DD0008100211DFFF7CEFDE06A2968C96A8842AB
:101DE000E2D3C5F81C80DFE70CB1FFF7E9FCAC6972
:101DF00044B14646FFF756FF00B1EE61641EF9D1CB
:101E00000020A861E86938B108490127380708604F
:101E1000BFF34F8FBFF36F8FFFF7D8FD3846BDE894
:101E2000F0870000400000209C29002004ED00E025
:101E3000A41E0008E10F00080000000000000000E0
:101E400080000000841E0008050F0008000000004C
:101E50000000000080000000941E00081D0F000814
:101E600000000000000000008000000000000000F2
:101E7000000000000102030406070809000000003A
:101E80000102030469776467466565645461736B96
:101E9000000000006C6564426C696E6B5461736B8A
:101EA0000000000064656661756C745461736B00BA
:101EB000D01E0008000000207C0000009C130008D9
:101EC0004C1F00087C0000205C2D0000AC130008B3
:101ED0000000000000000000000000000100000001
:101EE000100000000000000000A24A0400000000F2
:101EF00000000000000000000000000000000000E2
:101F00000000000000000000AAAAAAAA0000000029
:101F100000000000000000000000000000000000C1
:101F200000000000000000000000000000000000B1
:101F300000000000000000000000000000000000A1
:0C1F400000000000000000000000000095
:04000005080000ED02
:00000001FF
